S013000074696D65726C6573736F6E2E737265635C
S11300000C9444000C9470050C9497050C946100B6
S11300100C9461000C9461000C9461000C946100D8
S11300200C9461000C9461000C9461000C946100C8
S11300300C9461000C9461000C9461000C946100B8
S11300400C94BE050C9461000C9461000C94610046
S11300500C9461000C9461000C9461000C94610098
S11300600C9461000C94610042034E035A0366032E
S113007072037E038A031004160427043804490417
S11300805A046B047C048D0411241FBECFEFD8E006
S1130090DEBFCDBF11E0A0E0B1E0ECEFFBE002C0B9
S11300A005900D92AC30B107D9F721E0ACE0B1E096
S11300B001C01D92AC32B207E1F70E94AA020C946F
S11300C0FC050C940000CF93DF93C82FE0910C0142
S11300D0F0910D018081882329F1823009F076C0E6
S11300E040E0618184810E941205E0910C01F0914D
S11300F00D016C2F83810E943C05E0910C01F0916D
S11301000D0141E0628184810E94120500C0E091EA
S11301100C01F0910D0140E0628184810E9412057E
S113012000C054C0D0E08381BE0190E00E94470526
S1130130E0910C01F0910D0140E0618183810E9406
S11301401205E0910C01F0910D0141E0628183817F
S11301500E94120583EF91E00197F1F700C00000BF
S1130160E0910C01F0910D0140E0628183810E94D5
S1130170120583EF91E00197F1F700C00000E091D0
S11301800C01F0910D018381BE0190E00E945A059B
S1130190E0910C01F0910D0141E0628183810E94A4
S11301A0120583EF91E00197F1F700C00000E091A0
S11301B00C01F0910D0140E0628183810E941205DF
S11301C083EF91E00197F1F700C00000DF91CF9138
S11301D00895E0910C01F0910D0180818823F1F1E3
S11301E0823009F069C061E083810E94FA04E091E1
S11301F00C01F0910D0141E0618184810E94D004E1
S1130200E0910C01F0910D0141E0628184810E9432
S1130210D004E0910C01F0910D0140E061818481F2
S11302200E94120588E30E94630083EF91E0019726
S1130230F1F700C000008EE00E94630083EF91E0BC
S11302400197F1F700C0000081E00E94630083EF92
S113025091E00197F1F700C0000008956581838162
S11302600E94050582E00E94630083EF91E00197FC
S1130270F1F700C0000088E20E94630083EF91E080
S11302800197F1F700C000008CE00E94630083EF47
S113029091E00197F1F700C0000081E00E94630043
S11302A083EF91E00197F1F700C0000086E00E941F
S11302B0630080E80E9463000895CF93DF93C82F02
S11302C0E0910C01F0910D018081882329F18230A5
S11302D009F076C041E0618184810E941205E091B9
S11302E00C01F0910D016C2F83810E943C05E0917B
S11302F00C01F0910D0141E0628184810E9412059C
S113030000C0E0910C01F0910D0140E06281848114
S11303100E94120500C054C041E060E084810E9444
S11303201205D0E0E0910C01F0910D018381BE0132
S113033090E00E944705E0910C01F0910D0141E02D
S1130340628184810E94120583EF91E00197F1F7A5
S113035000C00000E0910C01F0910D0140E06281C9
S113036084810E94120583EF91E00197F1F700C0A8
S11303700000E0910C01F0910D018381BE0190E039
S11303800E945A05E0910C01F0910D0141E0628157
S113039084810E94120583EF91E00197F1F700C078
S11303A00000E0910C01F0910D0140E06281848134
S11303B00E94120583EF91E00197F1F700C000005D
S11303C0DF91CF91089590930D0180930C0183EDFB
S11303D090E30197F1F700C000000E94E90008953E
S11303E00E945D01089581E00E94630008958111D7
S11303F007C0603168F480E8860F0E9463000895A6
S1130400813031F4603120F480EC860F0E94630067
S11304100895CF93DF93EC019C01329522952F70C0
S113042023273F702327A7E4B3E00E94ED059695A8
S11304308795969587959695879540E157E2849F91
S11304409001859F300D949F300D1124CE01821BA5
S1130450930B9C01369527953695279536952795C8
S1130460A5ECB0E20E94ED05929582958F708927E4
S11304709F708927805D0E945D019E0136952795B6
S11304803695279536952795A5ECB0E20E94ED05A3
S1130490929582958F7089279F70892748EE53E043
S11304A0849F9001859F300D949F300D1124CE01BF
S11304B0821B930B9C013695279536952795ABE7C0
S11304C0B4E10E94ED0596958795805D0E945D01DB
S11304D09E013695279536952795ABE7B4E10E94A2
S11304E0ED059C013695279544E6429FC001439F44
S11304F0900D11249E01281B390BADECBCEC0E941D
S1130500ED05969587959695879596958795805D43
S11305100E945D019E01ADECBCEC0E94ED05969538
S1130520879596958795969587959C01220F331FFD
S1130530880F991F880F991F880F991F820F931F87
S11305409E01281B390BC901805D0E945D01DF916A
S1130550CF910895EAE1F1E0108282E083838483FD
S11305601182C1E0C28383EF8583CF010E94E3013E
S1130570E4E1F1E014821382118283E08283108229
S1130580C583CF010E940103E12CF12C10917A0064
S1130590129511700E94C204EC01112321F081E331
S11305A00E94F00103C080E30E94F0012FEB84ED70
S11305B091E0215080409040E1F700C00000EC162B
S11305C0FD0671F0F8940E94F30160E070E080E0B1
S11305D090E00E94F701CE010E94090278947E0106
S11305E00E94F301CE010E9409022FEB84ED91E0F9
S11305F0215080409040E1F700C000000E94F301C8
S1130600C5CFCF93DF93EC0186E0FE01A6E2B1E013
S113061001900D928A95E1F7EAE7F0E08081806825
S113062080838081806480838881813069F018F0C0
S1130630833099F01AC0ECE7F0E080818F778083F3
S113064080818F7B808311C0ECE7F0E080818F771D
S1130650808380818064808308C0ECE7F0E080813F
S113066080688083808180648083EA818E2F90E01B
S1130670FC013197E730F10508F057C0EC5CFF4FFF
S11306800C94E705EAE7F0E0808181608083808153
S11306908D7F808380818B7F808347C0EAE7F0E091
S11306A080818E7F808380818260808380818B7F44
S11306B080833BC0EAE7F0E08081816080838081B1
S11306C08260808380818B7F80832FC0EAE7F0E0A3
S11306D080818E7F808380818D7F80838081846010
S11306E0808323C0EAE7F0E0808181608083808199
S11306F08D7F808380818460808317C0EAE7F0E087
S113070080818E7F80838081826080838081846009
S113071080830BC0EAE7F0E0808181608083808180
S1130720826080838081846080838981823089F1C2
S113073028F4882359F08130E9F066C0843009F444
S113074046C0B0F1853009F451C05EC0EEE7F0E078
S1130750808181608083ECE7F0E080818E7F8083FC
S113076080818D7F808380818B7F80838081877F60
S113077080834AC0ECE7F0E08081816080838081DF
S11307808D7F808380818B7F80838081877F80833E
S11307903BC0ECE7F0E080818E7F808380818260C3
S11307A0808380818B7F80838081877F80832CC03E
S11307B0ECE7F0E0808181608083808182608083C7
S11307C080818B7F80838081877F80831DC0ECE75D
S11307D0F0E080818E7F808380818D7F8083808123
S11307E0846080838081877F80830EC0ECE7F0E0A3
S11307F080818E7F808380818260808380818B7FF3
S113080080838081877F8083EB818E2F90E0893085
S1130810910508F092C0FC01E55CFF4F0C94E705DC
S1130820EAE7F0E080818F7D808387C0EAE7F0E02B
S1130830808180628083EBE7F0E080818E7F80831B
S113084080818D7F808380818B7F808376C0EAE77F
S1130850F0E0808180628083EBE7F0E0808181605A
S1130860808380818D7F808380818B7F808365C03E
S1130870EAE7F0E0808180628083EBE7F0E080814A
S11308808E7F808380818260808380818B7F808360
S113089054C0EAE7F0E0808180628083EBE7F0E017
S11308A080818160808380818260808380818B7F6E
S11308B0808343C0EAE7F0E0808180628083EBE7D5
S11308C0F0E080818E7F808380818D7F8083808132
S11308D08460808332C0EAE7F0E0808180628083B4
S11308E0EBE7F0E080818160808380818D7F80836D
S11308F080818460808321C0EAE7F0E080818062A7
S11309008083EBE7F0E080818E7F8083808182604A
S1130910808380818460808310C0EAE7F0E0808176
S113092080628083EBE7F0E0808181608083808156
S1130930826080838081846080838C81882319F025
S1130940813039F00BC0ECE7F0E080818F7D80834B
S113095005C0ECE7F0E08081806280838D8188238C
S113096019F0813039F00BC0EAE7F0E0808188604B
S1130970808305C0EAE7F0E08081877F8083DF9190
S1130980CF910895EAE7F0E080818064808320912C
S113099078008091790090E0982F8827822B089521
S11309A0423010F5683010F5833010F5E82FF0E090
S11309B0EE0FFF1FEA5FFE4F0190F081E02D2081D2
S11309C081E090E0062E02C0880F991F0A94E2F796
S11309D050E002C0440F551F6A95E2F780958223C8
S11309E0482B408381E0089582E0089582E00895D1
S11309F082E00895E82FF0E0EE0FFF1FEA5FFE4F5C
S1130A000190F081E02D60830895E82FF0E0EE0F6F
S1130A10FF1FEA5FFE4F0190F081E02D8081682B7B
S1130A2060830895423010F5683010F5833010F576
S1130A30E82FF0E0EE0FFF1FE050FF4F0190F08130
S1130A40E02D208181E090E0062E02C0880F991FDE
S1130A500A94E2F750E002C0440F551F6A95E2F78A
S1130A6080958223482B408381E0089582E0089595
S1130A7082E0089582E00895E82FF0E0EE0FFF1F72
S1130A80E050FF4F0190F081E02D60830895E82F3E
S1130A90F0E0EE0FFF1FE050FF4FA081B1818C9179
S1130AA08F708C930190F081E02D8081607F682BA2
S1130AB060830895E82FF0E0EE0FFF1FE050FF4F32
S1130AC0A081B1818C918F708C930190F081E02D85
S1130AD0808190E1699FB0011124682B608308959F
S1130AE01F920F920FB60F9211242F933F934F939F
S1130AF05F936F937F938F939F93AF93BF93EF9382
S1130B00FF93E0911001F09111010995FF91EF918C
S1130B10BF91AF919F918F917F916F915F914F9111
S1130B203F912F910F900FBE0F901F9018951F9219
S1130B300F920FB60F9211242F933F934F935F930D
S1130B406F937F938F939F93AF93BF93EF93FF9391
S1130B50E0910E01F0910F010995FF91EF91BF9182
S1130B60AF919F918F917F916F915F914F913F9141
S1130B702F910F900FBE0F901F9018951F920F92F8
S1130B800FB60F9211242F933F934F935F936F935C
S1130B907F938F939F93AF93BF93EF93FF93E091D2
S1130BA01201F0911301309709F00995FF91EF912B
S1130BB0BF91AF919F918F917F916F915F914F9171
S1130BC03F912F910F900FBE0F901F901895EE0F2D
S1130BD0FF1F0590F491E02D0994A29FB001B39FEB
S1130BE0C001A39F700D811D1124911DB29F700D32
S10F0BF0811D1124911D0895F894FFCF7D
S10F0BFC250028002B00240027002A00FC
S9030000FC
